:1000000000000420C1010000ED010000ED0100002E
:10001000ED010000ED010000ED010000ED01000028
:10002000ED010000ED010000ED010000ED01000018
:10003000ED010000EC010000ED010000ED01000009
:10004000ED010000ED010000ED010000ED010000F8
:10005000ED010000ED010000ED010000ED010000E8
:10006000ED010000ED010000ED010000ED010000D8
:10007000ED010000ED010000ED010000ED010000C8
:10008000ED010000ED010000ED010000ED010000B8
:10009000ED010000ED010000ED010000ED010000A8
:1000A000ED010000ED010000ED010000ED01000098
:1000B000ED010000ED01000015140000ED0100004D
:1000C000ED010000ED010000ED010000ED01000078
:1000D000ED010000ED010000ED010000ED01000068
:1000E000ED010000ED010000ED010000ED01000058
:1000F000ED010000ED010000ED010000ED01000048
:10010000ED010000ED010000ED01000010B5054C0F
:10011000237833B9044B13B10448AFF300800123B3
:10012000237010BDA8000020000000004C740000E7
:1001300008B5034B1BB103490348AFF3008008BD6A
:1001400000000000AC0000204C740000154B002B98
:1001500008BF134B9D46A3F5803A00218B460F46FE
:100160001348144A121A06F0E2FD0F4B002B00D080
:1001700098470E4B002B00D0984700200021040028
:100180000D000D48002802D00C48AFF3008006F0A7
:100190009FFD2000290005F0B7FC06F085FD00BF9B
:1001A0000000080000000420000000000000000023
:1001B000A8000020A80A00200000000000000000A5
:1001C000064880470649074A074B9A42BEBF51F886
:1001D000040B42F8040BF8E7FFF7B8FFCD0200006C
:1001E0005874000000000020A4000020FEE700BFBB
:1001F00080B582B000AF00F025F878600A4BD3F8E4
:1002000008311B0AC3F308033B603B6801337A687B
:10021000B2FBF3F37B60054A7B6813607B6818468A
:100220000837BD4680BD00BF00400E4008000020DA
:1002300080B400AF024B1846BD465DF8047B7047A2
:10024000005A620280B483B000AF164BD3F89430EA
:1002500003F00703032B08D0042B02D0022B08D095
:100260000BE0114B1B687B600BE04FF400437B609D
:1002700007E00E4B1B687B6003E00D4B1B687B6047
:1002800000BF084BD3F800311B0A03F01F030133F2
:100290007A68B2FBF3F318460C37BD465DF8047B71
:1002A000704700BF00400E40040000200000002006
:1002B0000C00002080B400AF034B1B681846BD46FD
:1002C0005DF8047B704700BF0000002080B400AFE1
:1002D000074B084A9A60064BD3F88830044A43F427
:1002E0007003C2F8883000BFBD465DF8047B7047DC
:1002F00000ED00E00000000080B400AF4FF40043C8
:100300001846BD465DF8047B704780B400AF4FF4DB
:100310007A731846BD465DF8047B704780B400AF21
:10032000034B1B681846BD465DF8047B704700BF51
:100330000400002080B582B000AF114B7B60114BF0
:100340001B7883F00103DBB2002B13D00D4B01228D
:100350001A700BE07B681B68984738603B68002B7D
:1003600001D03B6807E07B6804337B607B681B68D7
:10037000002BEFD1002318460837BD4680BD00BFD3
:1003800010000020F000002080B584B000AF78603D
:100390003960114B1B7883F00103DBB2002B02D0D4
:1003A0000E4BFB6012E07B68002B0DDC7B682C227F
:1003B00002FB03F30A4A13442C221946386806F05C
:1003C000ABFC0023FB6001E0064BFB60FB681846BA
:1003D0001037BD4680BD00BFF00000200500118031
:1003E000C40000200200118080B584B000AF7860A6
:1003F000134B1B7883F00103DBB2002B02D0114BAF
:10040000FB6017E0104B1B68002B11DC0E4B1B68C8
:100410005A1C0D490A602C2202FB03F30B4A1344B9
:100420002C227968184606F077FC0023FB6001E077
:10043000074BFB60FB6818461037BD4680BD00BF08
:10044000F000002005001180F4000020C40000200E
:100450000100118080B58CB000AF00F0CDFA00F043
:100460005FFA00F0FBFA002300220821022000F0CE
:1004700005FB002300220621022000F0FFFA0023E2
:1004800000220E21032000F0F9FA002300220F21A0
:10049000032000F0F3FA002300220D21032000F0D6
:1004A000EDFA802200211A4800F0C0FAF862FB6AD7
:1004B000002B01D0FB6A27E0164B3B6001233B7405
:1004C00000237B7480237B608023FB607B68BB60A0
:1004D000114B7B61114BBB61114BFB61114B3B62BB
:1004E000114B7B62114BBB623B461846FFF77CFF0A
:1004F000F862FB6A002B06D13B460121184600F04A
:1005000026F800F03BF8FB6A18463037BD4680BD40
:10051000C50500005C6D00004F050000D905000016
:1005200049060000B906000065060000310500001C
:1005300080B584B000AF78600023FB6000F05CFA07
:1005400000F0EEF9FB6818461037BD4680BD80B557
:1005500082B000AF78600B46FB70FB78002B04D0B4
:100560000F21032000F0AAFA03E00F21032000F07E
:10057000B7FA002318460837BD4680BD80B582B063
:1005800000AF0E21032000F099FA062000F040FA97
:100590000B4B1B7843F00403DBB29BB2FB80BB1D0B
:1005A0000221184600F0EEF9022000F031FA0E2187
:1005B000032000F095FA002318460837BD4680BD99
:1005C000F800002080B500AF0D21032000F09AFA5A
:1005D0000023184680BD000080B487B000AFF860EB
:1005E000B9607A603B60BB68DA087B6802FB03F3A2
:1005F0007B61BB68802B01D00F4B16E00F4B1A6854
:100600007B6913440E4A934204D93B6800221A6066
:100610000C4B0AE0094B1A683B681A60074B1A68D2
:100620007B691344054A1360002318461C37BD46F6
:100630005DF8047B704700BF0200118018000020A5
:10064000FC0800200100118080B483B000AF786006
:100650003960034B18460C37BD465DF8047B704784
:100660000400118080B588B000AFF860B9607A608E
:100670003B60BB68FB61FB681B7C012B02D1002344
:10068000FB7601E0FF23FB7600237B610BE0FB7E22
:1006900010221946F86906F04AFBFB691033FB612A
:1006A0007B6901337B617A693B689A42EFD300230F
:1006B00018462037BD4680BD80B588B000AFF860D1
:1006C000B9607A603B60BB68BB61BB6A0133BB62E7
:1006D0000E21032000F0F2F9062000F099F9BB6A20
:1006E0009BB21B029BB243F001039BB2FB8207F15A
:1006F00016030221184600F045F90023FB6126E0AD
:100700001021B86900F03EF9BB691033BB61FB6A88
:10071000013BFA699A4203D14FF6FF73FB820DE069
:10072000BB6A9AB2FB699BB213449BB201339BB282
:100730001B029BB243F0FF039BB2FB8207F116033F
:100740000221184600F01EF9FB690133FB61FA69CA
:10075000FB6A9A42D4D3022000F05AF90E210320FA
:1007600000F0BEF9002318462037BD4680BD80B496
:1007700085B000AF786039607B6803F1C063FB60CF
:10078000FB683A681A6000BF1437BD465DF8047B09
:10079000704780B485B000AF786039607B6803F142
:1007A0008063FB60FB683A681A6000BF1437BD467F
:1007B0005DF8047B704780B582B000AF03463960B6
:1007C000FB71FB79002B1CD0FB79012B19D0FB7935
:1007D000022B16D0FB79032B13D0FB79042B10D0FE
:1007E000FB79052B0DD0FB79062B0AD0FB79072B63
:1007F00007D0FB79082B04D0FB79092B01D0FB79BA
:100800000A2BFA7913465B0013441B010C3303F1E6
:10081000804303F5204301213A6801FA02F21146B0
:100820001846FFF7B6FF00BF0837BD4680BD80B54C
:1008300082B000AF03463960FB71FB79002B1CD0FE
:10084000FB79012B19D0FB79022B16D0FB79032BF6
:1008500013D0FB79042B10D0FB79052B0DD0FB793D
:10086000062B0AD0FB79072B07D0FB79082B04D085
:10087000FB79092B01D0FB790A2BFA7913465B002F
:1008800013441B010C3303F1804303F52043012182
:100890003A6801FA02F211461846FFF768FF00BFF6
:1008A0000837BD4680BD000080B483B000AF03466A
:1008B0003960FB71FB79002B1CD0FB79012B19D01F
:1008C000FB79022B16D0FB79032B13D0FB79042B79
:1008D00010D0FB79052B0DD0FB79062B0AD0FB79C4
:1008E000072B07D0FB79082B04D0FB79092B01D00B
:1008F000FB790A2B01223B6802FA03F30749FA79D4
:10090000184613465B0013441B010B441833186050
:1009100000BF0C37BD465DF8047B704700A0004067
:10092000B0B588B000AF0023FB61124B3C1D1D46E3
:100930000FCD0FC495E8030084E8030001210E48A1
:1009400001F034FF0D4BFB603B1D19460C4804F0D1
:10095000DFFC0B4B0A225A67094B9B6F23F01F23C6
:10096000074A43F00B239367FB6918462037BD46BF
:10097000B0BD00BF746D000000520400E067350098
:100980000004014080B584B000AF78603960002376
:10099000FB6020E03B68012B04D07B6803F001037F
:1009A000002B0CD07B681B781946124804F098FD88
:1009B0003B68013B3B607B6801337B600BE07B68FD
:1009C0001B8819460B4804F0A1FD3B68023B3B60C5
:1009D0007B6802337B603B68002BDBD100BF054B9B
:1009E0001B6903F02003002BF9D0FB681846103771
:1009F000BD4680BD0004014080B582B000AF002339
:100A00007B6000F093FF7B6818460837BD4680BDC9
:100A100080B584B000AF78600023FB60786801F097
:100A20004BF8FB6818461037BD4680BD80B584B0D2
:100A300000AFF860B9607A607A68B968F86805F064
:100A400025F80346002B01D0034B00E00023184695
:100A50001037BD4680BD00BF0200138080B582B054
:100A600000AF00237B600121034801F09FFE7B68FB
:100A700018460837BD4680BD00350A0080B586B0EF
:100A800000AFF860B9603B601346FB7100237B61E7
:100A9000FB79002B0BD10423FB7400BFFB68D8B299
:100AA000FA7C3B68B96803F0BBFE7B6900E0024B4F
:100AB00018461837BD4680BD0100138080B584B04C
:100AC00000AF786039600023FB607B68DBB2396877
:100AD0001846FFF7ACFEFB6818461037BD4680BDD0
:100AE00080B584B000AF786039600023FB607B681C
:100AF000DBB239681846FFF75EFEFB681846103710
:100B0000BD4680BD80B584B000AF786039600023F9
:100B1000FB607B68DBB239681846FFF7C5FEFB68EF
:100B200018461037BD4680BD80B485B000AF7860F0
:100B300039607B6803F1C063FB60FB683A681A6048
:100B400000BF1437BD465DF8047B704780B485B0A4
:100B500000AF786039607B6803F18063FB60FB68FD
:100B60003A681A6000BF1437BD465DF8047B7047D1
:100B700080B582B000AF03463960FB71FB79002B72
:100B80001CD0FB79012B19D0FB79022B16D0FB79F5
:100B9000032B13D0FB79042B10D0FB79052B0DD040
:100BA000FB79062B0AD0FB79072B07D0FB79082BA2
:100BB00004D0FB79092B01D0FB790A2BFA79134673
:100BC0005B0013441B010C3303F1804303F5204306
:100BD00001213A6801FA02F211461846FFF7B6FF02
:100BE00000BF0837BD4680BD80B582B000AF034668
:100BF0003960FB71FB79002B1CD0FB79012B19D0DC
:100C0000FB79022B16D0FB79032B13D0FB79042B35
:100C100010D0FB79052B0DD0FB79062B0AD0FB7980
:100C2000072B07D0FB79082B04D0FB79092B01D0C7
:100C3000FB790A2BFA7913465B0013441B010C3332
:100C400003F1804303F5204301213A6801FA02F2DF
:100C500011461846FFF768FF00BF0837BD4680BD44
:100C600080B588B000AF78600121344801F09EFD66
:100C70007B681B68324A934202D1324BBB6106E06B
:100C80007B681B68304A934254D1304BBB610121D1
:100C9000B86901F08BFD7B6818797B685B79194630
:100CA00001230A2203F0BCFD7B6898797B68DB791D
:100CB000194601230A2203F0B3FD0023FB6112E071
:100CC0007B681A797B685B7919461046FFF78CFFC1
:100CD0007B681A797B685B7919461046FFF748FFF5
:100CE000FB690133FB61FB69082BE9DD7B681B684D
:100CF00003225A647B685B7A1A467B681B7A1B0264
:100D00001A437B681B689A6401233B7201237B7240
:100D10007B681B693B617B68DB68FB607B681B7DD4
:100D20003B757B681B6807F108021146184603F003
:100D300039FF00E000BF2037BD4680BD40410500BF
:100D400000C000400082040000C400400092040083
:100D500080B584B000AF786039600E4BBB603968F5
:100D6000786804F08DF90346FB7304E0786803F0BB
:100D700051FF0346FB7397F90F30012B04D1BB6879
:100D80005A1EBA60002BF1D197F90F301846103770
:100D9000BD4680BDE093040080B483B000AF03463D
:100DA000FB7197F90730002B0BDBFB7903F01F0277
:100DB000074997F907305B09012000FA02F241F870
:100DC000232000BF0C37BD465DF8047B704700BF91
:100DD00000E100E080B483B000AF0346FB7197F9F7
:100DE0000730002B0CDBFB7903F01F02074997F952
:100DF00007305B09012000FA02F2603341F823203A
:100E000000BF0C37BD465DF8047B704700E100E091
:100E100080B485B000AF78607B68002B03D07B681E
:100E2000B3F5004F00BF7B68B3FA83F3DBB2C3F1C5
:100E30001F03FB60FB6818461437BD465DF8047B52
:100E40007047000080B483B000AF7860064A7B68CA
:100E500004331B01134404331B6818460C37BD468A
:100E60005DF8047B704700BF0020044080B483B06D
:100E700000AF78603960074A7B6804331B01134474
:100E800004333A681A6000BF0C37BD465DF8047B36
:100E9000704700BF0020044080B582B000AF78608A
:100EA0007868FFF7CFFF034618460837BD4680BD78
:100EB00080B582B000AF7860396039687868FFF734
:100EC000D5FF00BF0837BD4680BD000080B400AF2D
:100ED000034B9B681846BD465DF8047B704700BF16
:100EE0000020044080B483B000AF7860044A7B687F
:100EF000136200BF0C37BD465DF8047B704700BF2E
:100F00000020044080B483B000AF7860064B5A6A7A
:100F10007B68DB43044913404B6200BF0C37BD467E
:100F20005DF8047B704700BF0020044080B483B0AC
:100F300000AF7860054B5A6A04497B6813434B62E3
:100F400000BF0C37BD465DF8047B704700200440AD
:100F500080B483B000AF064B5B6A7B60044B9A6938
:100F60007B68134018460C37BD465DF8047B70471C
:100F70000020044080B586B000AF786000237B611C
:100F800000233B61204B1B7883F00103DBB2002B75
:100F900001D01E4B33E002F039FCF86002E07B69BF
:100FA00001337B617B69032B0ADC19497A6913469B
:100FB0009B001344DB000B441E331B78002BEED147
:100FC0007B69042B02D1134B3B6114E07B68002B3F
:100FD0000FD00F497A6913469B001344DB000B4482
:100FE0001E3301221A707A697B681A6000233B6104
:100FF00001E0094B3B61F86802F018FC3B691846B8
:101000001837BD4680BD00BFAA090020061000F0B9
:1010100000090020011000F0041000F080B500AFBE
:10102000224B1B78002B01D000233CE001212048FB
:1010300001F0BCFB02211F4801F0F2FF0120FFF785
:10104000E7FE0346DAB21C4B1A7101211B4801F07E
:10105000ADFB194804F0DCF81949012004F098F8B8
:1010600040F2FF70FFF74EFF40F2FF70FFF73AFFCC
:10107000144B00229A601E20FFF7ACFE1E20FFF7E3
:101080008BFEA0220021104805F051FE0F4B0022DC
:101090001A700F4B00221A700E4B00221A60034B7D
:1010A00001221A700023184680BD00BFAA09002043
:1010B00000250A00050024001C000020A0091400DF
:1010C000280000200020044000090020A80900207A
:1010D000A9090020A409002090B58FB000AFF860E6
:1010E0007A603B600B46FB7200233B63904B1B789E
:1010F00083F00103DBB2002B01D08E4B7DE1FB6856
:10110000032B01D98C4B78E102F080FBF8628B490C
:10111000FA6813469B001344DB000B441E331B7814
:1011200083F00103DBB2002B04D0F86A02F07EFBEF
:10113000834B62E17B68002B0BD13B68002B03D013
:101140003B68B96CF8689847F86A02F06FFB0023B7
:1011500053E1FFF7BBFE78637849FA6813469B00BA
:101160001344DB000B4418333A681A607B68194655
:101170004FF000024FF000034FF00004D40344EAA4
:101180005144CB0313F5FA7044F100014FF47A7225
:101190004FF0000305F008FC03460C4619462246B2
:1011A000664CF86803469B000344DB002344083385
:1011B000C3E90012FB7A012B29D17B684FF47A72C4
:1011C00002FB03F15D48FA6813469B001344DB0001
:1011D00003440833D3E900341A4613461B019B1A13
:1011E0005B00CB1A18465549FA6813469B00134416
:1011F000DB000B44103318605049FA6813469B001B
:101200001344DB000B4414330F221A6013E04B49E4
:10121000FA6813469B001344DB000B440833D3E900
:101220000012464CF86803469B000344DB0023444D
:101230000833C3E900124149FA6813469B0013447E
:10124000DB000B440833D3E90034591C44F100029D
:101250003A4CF86803469B000344DB002344C3E98F
:1012600000123649FA6813469B001344DB000B4416
:101270001C3301221A703149FA6813469B0013444B
:10128000DB000B441F33FA7A1A702C49FA681346B4
:101290009B001344DB000B442033BA6C1A60294BCB
:1012A0001B78002B04D0F86A02F0C0FA0023A4E0F7
:1012B000254B1B68B3F1FF3F04D0234B1B68013360
:1012C000214A1360214B1B7883F00103DBB2002B12
:1012D00040D01F4A7B6B13600420FFF703FE1749C1
:1012E000FA6813469B001344DB000B44D3E9003437
:1012F000C7E906346FF064037B617B6919464FF0E0
:101300000002D7E90634A24208BF994201D20B4637
:1013100014463B617A6B3B69134419460120FFF781
:10132000C7FD0420FFF702FE084B01221A7057E0A8
:10133000AA090020061000F0021000F000090020A9
:10134000031000F0A8090020A4090020A90900202A
:10135000A00900202B4B1B68012B41D12A49FA68B8
:1013600013469B001344DB000B441C3300221A700D
:101370000420FFF7C7FD254B1B687A6BD31ABB62AD
:10138000B86A00F099F800F0FFF93B6B002B09D127
:101390001D49FA6813469B001344DB000B441C33C1
:1013A00001221A703B6B01333B63786B00F01EFA2D
:1013B000FFF78CFD7863154B1B687A6BD31ABB6201
:1013C0000120FFF769FD0246104B1B68D31A7B62B0
:1013D0000F4B1B78002B03D0BA6A7B6A9A42C7D2A4
:1013E000084B1B68002B04D0064B1B68013B054AC9
:1013F0001360F86A02F01AFA002318463C37BD461B
:1014000090BD00BFA409002000090020A009002011
:10141000A909002080B586B000AF02F0F7F9386165
:10142000FFF796FDF860FB6823F005031846FFF709
:1014300059FDFB6803F00403002B30D01B4B012245
:101440001A70FFF743FD78610420FFF75BFD184B2E
:101450001B687A69D31ABB60B86800F02DF800F0F9
:1014600093F9786900F0C2F9FFF730FD7861104B0D
:101470001B687A69D31ABB600120FFF70DFD024695
:101480000B4B1B68D31A7B600A4B1B78002B03D0D5
:10149000BA687B689A42D7D2044B00221A70386926
:1014A00002F0C4F900BF1837BD4680BDA80900206E
:1014B000A0090020A9090020F0B587B000AF78602E
:1014C00000237B6156E1AF497A6913469B001344C0
:1014D000DB000B441D3300221A70AA497A691346B7
:1014E0009B001344DB000B441C331B78002B00F0E3
:1014F0003E81A4497A6913469B001344DB000B44E8
:10150000D3E900347A6811464FF00002A24208BFC6
:1015100099421AD29B497A6913469B001344DB0017
:101520000B44D3E900567B684FF00004294632464D
:10153000C91A62EB0402934C786903469B0003448A
:10154000DB002344C3E9001211E18E497A69134696
:101550009B001344DB000B441F331B78002B0AD184
:1015600088497A6913469B001344DB000B441C3303
:1015700000221A70E6E07B6819464FF00002814CA9
:10158000786903469B000344DB002344D3E90056FB
:101590000B4614465B1B64EB0604C7E90234794929
:1015A0007A6913469B001344DB000B440833D3E9EC
:1015B000004574497A6913469B001344DB000B44D1
:1015C0000833D3E90023D7E9020105F0EDF9A41AA5
:1015D00065EB030521462A466A4C786903469B0061
:1015E0000344DB002344C3E9001266497A691346C9
:1015F0009B001344DB000B4410331B68002B50DDB1
:1016000060497A6913469B001344DB000B44143392
:1016100019685C487A6913469B001344DB00034455
:1016200010331B68194457487A6913469B001344CA
:10163000DB0003441433196052497A6913469B0056
:101640001344DB000B4414331B681D2B7AD94D491E
:101650007A6913469B001344DB000B44D3E9003442
:10166000591C44F10002474C786903469B0003442F
:10167000DB002344C3E9001242497A6913469B0008
:101680001344DB000B4414331B68A3F11E013D48D7
:101690007A6913469B001344DB000344143319603A
:1016A00050E038497A6913469B001344DB000B4431
:1016B0001433196833487A6913469B001344DB00DE
:1016C000034410331B68C91A2E487A6913469B00DD
:1016D0001344DB000344143319602A497A69134622
:1016E0009B001344DB000B4414331B681D2B29D9CA
:1016F00024497A6913469B001344DB000B44D3E969
:10170000003413F1FF3144F1FF321E4C7869034677
:101710009B000344DB002344C3E9001219497A69A2
:1017200013469B001344DB000B4414331B68A3F1E6
:101730001E0114487A6913469B001344DB000344DE
:10174000143319600F497A6913469B001344DB0078
:101750000B4418331B68002B09D00A497A691346D9
:101760009B001344DB000B441D3301221A707B697C
:1017700001337B617B69032B7FF7A5AE00BF1C376C
:10178000BD46F0BD0009002090B583B000AF002336
:101790007B6022E014497A6813469B001344DB0007
:1017A0000B441D331B78002B14D00F497A68134665
:1017B0009B001344DB000B4418331C6878680A490B
:1017C0007A6813469B001344DB000B4420331B68EC
:1017D0001946A0477B6801337B607B68032BD9DD0A
:1017E00000BF0C37BD4690BD0009002090B58BB0FE
:1017F00000AF78604FF0FF334FF0FF34C7E9063495
:1018000000237B6227E031497A6A13469B00134428
:10181000DB000B441C331B78002B19D02B497A6A50
:1018200013469B001344DB000B44D3E90012D7E9B5
:101830000634A24208BF99420AD224497A6A134662
:101840009B001344DB000B44D3E90034C7E90634A2
:101850007B6A01337B627B6A032BD4DD1C4B002245
:101860001A70D7E90634B4F1FF3F08BFB3F1FF3F68
:1018700027D0D7E90634C7E904346FF06403FB606E
:10188000FB6819464FF00002D7E90434A24208BFB2
:10189000994201D20B461446C7E906340D4A7B68CB
:1018A00013600420FFF71EFBBA697B6813441946D6
:1018B0000120FFF7FDFA064B01221A700420FFF702
:1018C00035FB00BF2C37BD4690BD00BF000900208E
:1018D000A9090020A009002080B483B000AF03460E
:1018E000FB7197F90730002B0CDBFB7903F01F022B
:1018F000074997F907305B09012000FA02F26033CB
:1019000041F8232000BF0C37BD465DF8047B7047CB
:1019100000E100E080B400AF034B9B681846BD4671
:101920005DF8047B704700BF0020044080B58AB09A
:1019300000AF002387F82730002387F826300023E4
:1019400087F82530002387F82430002387F82330D8
:10195000534A3B4607CA03C31A700023FB610023A6
:10196000BB61504BD3F8B03003F00403002B06D119
:1019700001214D4800F01AFF012387F827304B481A
:1019800001F06EFA0346FB75FB7D032B02D00123A9
:1019900087F82530434BD3F8903003F04003002BF9
:1019A00002D1012387F824300321404801F038FB9D
:1019B0003F4800F0DFFE38613A4BD3F8F03003F0D7
:1019C0000103002B06D10121394800F0EFFE01236D
:1019D00087F8263001F01AFFF860364B1B6803F0D9
:1019E0000103002B15D0334B1B68FB61314B5B6A45
:1019F000BB61304B00221A602E4B00225A622D4BE5
:101A000040F2FF721A621E20FFF766FF012387F87B
:101A100023300023BB700023FB7008233B713B463F
:101A2000184603F0F5FB00F065F8F86801F0FEFEDB
:101A300097F82330002B0AD039691D4800F0A7FE23
:101A40001C4AFB6913601B4ABB69536202E0002019
:101A500003F0CCFB97F82630002B03D0002114486C
:101A600000F0A4FE97F82530002B04D0FB7D19462A
:101A70000E4801F0D5FA97F82430002B04D000224C
:101A80000021012001F0C2FC97F82730002B03D081
:101A90000021054800F08AFE00BF2837BD4680BD02
:101AA0008C6D000000400E4000250A000500240057
:101AB000A00914000020044080B483B000AF786017
:101AC0007B680B49002B0CD0013B882212020032AC
:101AD00053430A68D80AD20A5043800901D001381A
:101AE000FDD800BF0C37BD465DF8047B704700BFD2
:101AF0003000002080B584B000AF0823BB60334BBA
:101B00004FF480521A601AE000F062F8786000BF6B
:101B100000F05EF802467B689342F9D000F058F876
:101B200078602A4B1B68184600F059F800F050F80E
:101B300002467B68D31A7B607B68002B07D1234B5E
:101B40001B685B00214A1360002BDDD100E000BF61
:101B50001E4B1B685B081D4A13601C4B1B68FB6017
:101B600024E01A4B1A68FB681343184A136000F00C
:101B70002FF8786000BF00F02BF802467B68934294
:101B8000F9D000F025F87860104B1B68184600F07B
:101B900026F800F01DF802467B68934206D0FB68E9
:101BA000DA430A4B1B681340084A1360BB685A1E8D
:101BB000BA60002B05D0FB685B08FB60FB68002B5C
:101BC000CFD100BF1037BD4680BD00BF3000002020
:101BD00080B500AFFFF79EFE0346184680BD80B477
:101BE00083B000AF78607B68013BFDD800BF0C3745
:101BF000BD465DF8047B704780B586B002AF786063
:101C00002B4B1B78002B01D000234CE0FEF792FBFE
:101C1000F860FB68002B01D0FB6844E025490020F8
:101C2000FEF7B2FBF860FB68002B01D0FB683AE0DE
:101C3000214800F003FAF860FB68002B01D0FB6834
:101C400031E01D4B1B68002B01D10B232BE0194BFE
:101C50005B689AB2194B1A80164BDB689AB2174B25
:101C60005A80164B00229A80144B0022DA80134BC4
:101C70001A88124B1A81114B5A88104B5A810C4BFF
:101C800001221A700D4B1B881A460C4B5B8803FB14
:101C900002F301930023009300230022002100207F
:101CA00000F070F8002318461037BD4680BD00BF15
:101CB000AB090020AC090020D8090020DC09002075
:101CC00080B483B000AF7860094B1B7883F00103C8
:101CD000DBB2002B01D0012303E07B68054A1A60C8
:101CE000002318460C37BD465DF8047B704700BFE3
:101CF000AB090020DC09002090B482B000AF04469C
:101D0000084611461A462346FB800346BB800B4615
:101D10007B8013463B80194B1B7883F00103DBB2B9
:101D2000002B01D0012324E0FA887B881344144A55
:101D30001288934206DCBA883B881344104A5288C2
:101D4000934201DD042314E07B88002B02D03B8802
:101D5000002B01D105230CE0094AFB889380084A37
:101D6000BB88D380064A7B881381054A3B88538110
:101D7000002318460837BD4690BC7047AB090020C9
:101D8000DC09002090B58DB000AF0446084611462E
:101D90001A462346FB800346BB800B46FB70134666
:101DA000BB70A14B1B7883F00103DBB2002B01D089
:101DB000012335E19D4B1B68002B01D101232FE14D
:101DC0009B4B5B7C002B01D00A2329E100237B6223
:101DD000974B9B68DB08FB61964BDA88BB88134402
:101DE000BB80924B1B68BA88F96901FB02F213446D
:101DF000BB610FE18F4B1B891A46FB88D31A1A4629
:101E00007B6C934228BF1346FB627A6CFB6AD31A41
:101E10007B64884B9A88FB881344FB807B6AFA6951
:101E200002FB03F31A46BB691344BB62804B1B7C65
:101E30000033012B00F2CE80BB78002B01D00023B1
:101E400000E0FF2387F82330794B1B7C012B04D162
:101E500097F82330DB4387F82330FB6A072B4CD8F5
:101E6000FB88FA6A1344FB6297F82330002B3FD0BB
:101E70001BE0FB88DB089BB21A46BB6A13441B7845
:101E80005AB2FB8803F00703012101FA03F35BB2A6
:101E900013435AB2FB88DB089BB21946BB6A0B445A
:101EA000D2B21A70FB880133FB80FB88FA6A9A422F
:101EB000DFD891E0FB88DB089BB21A46BB6A13446B
:101EC0001B785AB2FB8803F00703012101FA03F3E0
:101ED0005BB2DB435BB213405AB2FB88DB089BB2B8
:101EE0001946BB6A0B44D2B21A70FB880133FB80DF
:101EF000FB88FA6A9A42DDD86EE0FB8803F007039C
:101F00007B61FB88DB089BB21A46BB6A1344BB6249
:101F10007B69002B25D0BB6A1B78FB7401227B698F
:101F200002FA03F3DBB2013BBB74FA7CBB7C1340C7
:101F3000FB7497F91230DB435AB297F92330134000
:101F40005AB297F9133013435BB2FB74BB6AFA7C45
:101F50001A70BB6A0133BB627A69FB6A1344083B9F
:101F6000FB62FB6ADB08FB60FB68002B10D097F874
:101F70002330FA681946B86A04F0D9FEFB68DB0022
:101F80001A46FB6A9B1AFB62FB68BA6A1344BB627F
:101F9000FB6A002B20D0BB6A1B78FB740122FB6A12
:101FA00002FA03F3DBB2013BBB7497F91230DB4357
:101FB0005AB297F9133013405BB2FB7497F82320A1
:101FC000BB7C1340DAB2FB7C1343FB74BB6AFA7C24
:101FD0001A7001E000BF00E000BFBA887B6A1344BA
:101FE0005B11154A52F82320B9887B6A0B4403F031
:101FF0001F03012101FA03F31846B9887B6A0B44D9
:102000005B1102430C4941F823200023FB807B6ACB
:1020100001337B627B6C002B7FF4ECAE00BF0023AE
:1020200018463437BD4690BDAB090020D8090020C2
:10203000AC090020DC0900204C0A002090B583B0D8
:1020400000AF7860114B9B69002B01D1012318E090
:102050000E4B9C690D4B59680C4BDA680C4B0B48C6
:10206000A0470B4B1B68002B01D10B2309E0084B49
:102070001A687B681A601022FF21064804F057FE98
:10208000002318460C37BD4690BD00BFAC090020A8
:10209000D80900204C0A002080B588B000AF7860D5
:1020A0007B68002B01D1052331E07B6800225A6058
:1020B0007B686FF07F429A6007F118031846FFF7BC
:1020C000FFFDF861FB69002B01D0FB691FE0BA69D5
:1020D0007B681A600023BB600023FB60BB691B8820
:1020E000013B3B61BB695B88013B7B6107F10803F6
:1020F0001946786800F012F8F861FB69002B01D0EE
:10210000FB6904E00449786800F084F8FB6918462C
:102110002037BD4680BD00BFE873000090B587B092
:1021200000AF786039607B68002B02D03B68002BE1
:1021300001D105233FE03B681A683B689B689A42DF
:1021400005DA3B685A683B68DB689A4201DB042386
:1021500031E03B681B68002B13DB3B685B68002B9E
:102160000FDB3B689A687B681B681B88013B9A42BF
:1021700007DC3B68DA687B681B685B88013B9A4236
:1021800001DD032317E03B681B68BB603B685B68AD
:10219000FB603B689B683B613B68DB687B617B68FD
:1021A00003F10C0407F108030FCB84E80F007868F3
:1021B00000F005F8034618461C37BD4690BD90B5A3
:1021C00083B000AF78607B68002B01D105231DE050
:1021D0007B68DB6898B27B681B6999B27B685B6936
:1021E0009AB27B68DB689BB2D31A9BB201339CB274
:1021F0007B689B699AB27B681B699BB2D31A9BB2BE
:1022000001339BB22246FFF777FD034618460C3791
:10221000BD4690BD80B582B000AF786039607B6804
:10222000002B01D1052313E03B68002B08D17B680C
:102230001C3310220021184604F079FD052307E025
:102240007B681C3310223968184604F065FD0023B2
:1022500018460837BD4680BD80B487B000AFF8602F
:10226000B9607A60FB6803F10473DA00BB68134459
:102270009B007B617B697A681A6000BF1C37BD4692
:102280005DF8047B704780B485B000AF786039603A
:102290007B6803F10473DA003B6813449B00FB6026
:1022A000FB681B6818461437BD465DF8047B704711
:1022B00080B483B000AF786001227B6802FA03F338
:1022C00018460C37BD465DF8047B704780B584B076
:1022D00000AF78607B680133B3FA83F3DBB2C3F1FC
:1022E0001F03FB60F868FFF7E3FFFB681846103731
:1022F000BD4680BD80B500AF00BF12210348FFF787
:10230000C2FF0346002BF8D100BF80BD04300E4051
:1023100080B500AFFFF7EEFF034B5B681B0C03F0CB
:102320000303DBB2184680BD00300E4080B584B098
:1023300000AF78600123FB607B68124A934204D8A7
:102340000023FB600023BB6008E07B680E4A9342D9
:1023500002D80123BB6001E00223BB60FA681021B0
:102360000A48FFF779FF094BD3F8003123F0807258
:10237000BB681B0605491343C1F8003100BF103785
:10238000BD4680BD0048E8010090D00300400E40EB
:1023900080B483B000AF054B1B687B607B68184638
:1023A0000C37BD465DF8047B704700BF3400002049
:1023B00080B582B000AFFDF745FF7860064BD3F8DB
:1023C00000311B0A03F01F0301337A6802FB03F399
:1023D00018460837BD4680BD00400E4080B582B02B
:1023E00000AF0D4800F03CFD0346FB70FB78072B67
:1023F00005D0092B07D1FDF725FF786006E0FFF730
:10240000C7FF786002E000237B6000BF7B6818464E
:102410000837BD4680BD00BF06000E0080B584B001
:1024200000AF78607B68002B1CD11B4800F018FDC2
:102430000346FB7200BFFB7A013B072B23D801A2A6
:1024400052F823F06924000087240000872400004C
:102450007724000087240000872400006F240000F8
:102460007F240000002312E00023FB600EE0FFF752
:102470008FFFF8600AE0FDF71DFFF86006E0FFF748
:1024800097FFF86002E00023FB6000BFFB6818467E
:102490001037BD4680BD00BFB800320080B485B0A3
:1024A00000AF786039601E4B5B6803F04073FB60DF
:1024B0000023BB6012E01B4ABB68DB0013441A799F
:1024C0003B68DBB29A4206D1164ABB6852F83330F9
:1024D0007A689A4206D9BB680133BB60BB68042B9B
:1024E000E9D900E000BFBB68052B02D10323FB60E4
:1024F00005E00C4ABB68DB0013445B79FB60FB68BA
:102500001B06FB60064B5B6823F040720449FB68C6
:1025100013434B6000BF1437BD465DF8047B704722
:1025200000000E40F873000080B582B000AF0E4B83
:102530001B6C002B14BF01230023FB710A4B41F6D7
:1025400071321A64FDF774FE034600211846FFF746
:10255000A5FFFB79002B02D0034B00221A6400BFB9
:102560000837BD4680BD00BF00000E4080B584B076
:1025700000AF786039600C4B1B6C002B14BF01233B
:102580000023FB73084B41F671321A64396878688E
:10259000FFF784FFFB7B002B02D0034B00221A6461
:1025A00000BF1037BD4680BD00000E4080B487B02C
:1025B00000AF78600F237B617B6803333B617B69ED
:1025C000FB60FA683B69934228BF1346BB60BB6857
:1025D0001B07BB60BB6818461C37BD465DF8047B13
:1025E0007047000080B400AF044B5B6A1B0903F026
:1025F00003031846BD465DF8047B704700400E405B
:1026000080B483B000AF7860074B5B6A23F0300280
:102610007B681B01044913434B6200BF0C37BD4666
:102620005DF8047B704700BF00400E4090B585B058
:1026300000AF78600023BB607B68354A934206D0C8
:10264000344A934203D0344A934200D000E000BFA2
:10265000786800F005FC0346FB607B682C4A9342D7
:102660000DD02C4A934211D02B4A934200D014E053
:102670002A4BD3F8803003F00703FB600DE0274BB3
:10268000D3F8843003F00703FB6006E0234BD3F854
:10269000883003F00703FB6000BFFB68042B2ED8D3
:1026A00001A252F823F000BFF9260000BD26000069
:1026B000C5260000D5260000CD260000FDF71CFE33
:1026C000B8601FE0FDF72AFEB8601BE0FDF71DFEB5
:1026D000B86017E0FDF78CFD0446104BD3F80031CD
:1026E0001B0E03F0010301331846FFF7E1FD03461B
:1026F000B4FBF3F3BB6005E00023BB6002E0002302
:10270000BB6000BFBB6818461437BD4690BD00BF14
:10271000030020000500240002001E0000400E40BF
:1027200080B483B000AF78600A4BD3F8443103F033
:102730000103002B08D100BF064BD3F840217B6872
:102740001340002BF8D100E000BF0C37BD465DF808
:10275000047B704700400E4080B400AF00BFBD4610
:102760005DF8047B704780B400AF00BFBD465DF8E4
:10277000047B704780B582B000AF7860786800F065
:1027800081F90346013318460837BD4680BD80B540
:1027900082B000AF786039603B68013B19467868C9
:1027A00000F032FA00BF0837BD4680BD80B586B064
:1027B00000AF78600B46FB7000233B617B681B0A0F
:1027C00003F00F03013B092B44D801A252F823F078
:1027D000F9270000052800005528000055280000B2
:1027E000FF2700000B2800001528000055280000D6
:1027F0001F2800002B280000184B7B6118E0184BA5
:102800007B6115E0174B7B6112E0174B7B61012365
:102810003B610DE0154B7B6110233B6108E0144BDD
:102820007B614FF480333B6102E0124B7B6100BF60
:102830007B681B0B03F01F03FB603B69002B02D07E
:102840003869FFF76DFFFB781A46F9687869FFF77A
:1028500003FD00E000BF1837BD4680BD00400E40BC
:10286000B0400E40C0400E40E0400E40E8400E40F8
:10287000F0400E4050410E4080B584B000AF78600B
:102880007B6803F47813B3F5A01F7DD0B3F5A01FC8
:102890001AD8B3F5202F50D0B3F5202F08D8B3F5B0
:1028A000003F4ED0B3F5802F38D0002B32D0D8E087
:1028B000B3F5602F00F0C880B3F5801F00F0C8802A
:1028C000B3F5402F4CD0CCE0B3F5001F00F08B8067
:1028D000B3F5001F0AD8B3F5D01F00F08980B3F517
:1028E000F01F4CD0B3F5B01F5CD0BAE0B3F5381F81
:1028F0006AD0B3F5381F04D8B3F5101F00F09F80DD
:10290000AFE0B3F5401F00F08680B3F5481F00F03C
:10291000A380A6E0FDF796FCF860A5E0FDF792FC29
:10292000F860544BD3F80C311B0AC3F3080301338E
:10293000FA68B2FBF3F3FB6096E0FDF783FCF86006
:1029400092E0FDF77FFCF8604A4BD3F808311B0A90
:10295000C3F308030133FA68B2FBF3F3FB6083E0CF
:10296000FDF770FCF860434BD3F814311B0A03F0F9
:102970001F030133FA68B2FBF3F3FB6074E03E48D7
:10298000FFF754FEF8606FE03C48FFF74FFEF86039
:10299000384BD3F8303103F00303FA6822FA03F31B
:1029A000FB6061E03448FFF741FEF860314BD3F83B
:1029B000203103F00F031846FFF77AFC0246FB684C
:1029C000B3FBF2F3FB604FE02B48FFF72FFEF860FC
:1029D000284BD3F820311B0903F00303FA6822FACD
:1029E00003F3FB6040E02648FFF720FEF8603BE081
:1029F0002348FFF71BFEF8601E4BD3F828311B0954
:102A000003F003031846FFF753FC0246FB68B3FBD1
:102A1000F2F3FB6028E01A48FFF708FEF860154B58
:102A2000D3F828311B0A03F0030304331846FFF7D9
:102A30003FFC0246FB68B3FBF2F3FB6014E00F4877
:102A4000FFF7F4FDF8600FE0FFF7C8FCF8600BE05B
:102A5000FFF79EFCF86007E00020FFF7DFFCF8605E
:102A600002E00023FB6000BFFB6818461037BD463C
:102A700080BD00BF00400E4002001E000500240083
:102A80000300200080B584B000AF78607B681B092C
:102A900003F00F03BB60BB68013B092B00F2A08071
:102AA00001A252F823F000BFD12A0000E12A000061
:102AB000F12A0000012B0000E12B0000E12B0000B7
:102AC000112B0000212B00006F2B0000C32B0000F6
:102AD000474BD3F800311B0A03F01F03FB6082E071
:102AE000434BD3F814311B0A03F01F03FB607AE059
:102AF0003F4BD3F800311B0E03F00103FB6072E083
:102B00003B4BD3F80C311B0AC3F30803FB606AE0AC
:102B1000374BD3F808311B0AC3F30803FB6062E0AC
:102B20007B68344A934203D0334A93420DD01AE073
:102B30002F4BD3F8203103F00F03FB60F868FFF749
:102B4000B7FB0346013BFB6010E0294BD3F8203173
:102B50001B0903F00303FB60F868FFF7A9FB0346BA
:102B6000013BFB6002E00023FB6000BF3BE07B68B1
:102B7000224A934203D0224A93420ED01DE01C4BBE
:102B8000D3F828311B0903F00303FB60F868FFF753
:102B90008FFB0346013BFB6012E0154BD3F8283155
:102BA0001B0A03F00303FB60FB6804331846FFF7BE
:102BB0007FFB0346013BFB6002E00023FB6000BF9C
:102BC00011E07B680F4A934206D1094BD3F83031AC
:102BD00003F00303FB6002E00023FB6000BF02E0A0
:102BE0000023FB6000BFFB6818461037BD4680BD60
:102BF00000400E408006160080162E0090171A0026
:102C000090273000A009140080B584B000AF786030
:102C100039607B681B0903F00F03FB60FB68013B15
:102C2000092B00F2078101A252F823F0552C000075
:102C3000A12C0000352E0000B92C0000352E00001C
:102C4000352E0000D52C00001D2D00009D2D00000C
:102C50000B2E0000FFF768FC7948FFF767FBFFF7D2
:102C60007BFD784BD3F8003123F4F8523B681B020C
:102C700074491343C1F80031FDF7BAFAB860FFF7A1
:102C800047FB03461946B868FFF770FC6E48FFF72C
:102C9000F3FD03461846FFF749FBFFF764FDCAE062
:102CA000684BD3F8143123F4F8523B681B02654992
:102CB0001343C1F81431BEE0624BD3F80C3123F456
:102CC000FF3323F480733A6812025E491343C1F85C
:102CD0000C31B0E0FFF728FC5948FFF727FB594BB0
:102CE000D3F8083123F4FF3323F480733A681202D7
:102CF00054491343C1F80831FDF77AFAB860FFF779
:102D000007FB03461946B868FFF730FC4E48FFF74B
:102D1000B3FD03461846FFF709FB8CE07B684B4A7E
:102D2000934215D04A4A934224D04A4A934200D053
:102D300033E04FF48020FFF7F3FC424BD3F83031FF
:102D400023F003023F493B681343C1F8303124E0CC
:102D50003868FFF7BBFA38600420FFF7E1FC394B15
:102D6000D3F8203123F00F0236493B681343C1F8F2
:102D7000203112E03868FFF7A9FA38600420FFF725
:102D8000CFFC304BD3F8203123F030023B681B01DD
:102D90002C491343C1F8203100BF4CE07B682E4A18
:102DA000934203D02D4A934213D02DE03868FFF7A9
:102DB0008DFA38604020FFF7B3FC224BD3F828315E
:102DC00023F030023B681B011E491343C1F8283130
:102DD0001AE03B687F2B02D83B680E2B00BF386897
:102DE000FFF774FA0346043B3B604020FFF798FC72
:102DF000144BD3F8283123F440723B681B0211496D
:102E00001343C1F8283100BF15E07B68114A934293
:102E100000D00EE04FF48020FFF782FC094BD3F87E
:102E2000303123F0030207493B681343C1F83031C6
:102E300000BF00E000BF00BF1037BD4680BD00BF2F
:102E40000148E80100400E4000250A0080061600F7
:102E500080162E00A009140090171A009027300049
:102E600080B485B000AF78600123FB737B6803F00A
:102E70000F03BB60BB68013B072B00F2C48001A2BB
:102E800052F823F0A52E0000FB2E00002B2F00008F
:102E900007300000712F0000A12F00000730000054
:102EA000C52F00005D4BD3F8943003F00703023BBD
:102EB000052B1ED801A252F823F000BFE12E00001E
:102EC000DB2E0000D52E0000E72E0000F32E0000C0
:102ED000ED2E00000223FB730EE00323FB730BE0D7
:102EE0000423FB7308E00B23FB7305E00C23FB7347
:102EF00002E00523FB7300BF88E0484BD3F8803025
:102F000003F00703022B06D0042B07D0012B08D1B6
:102F10000323FB7308E00223FB7305E00A23FB7322
:102F200002E00123FB7300BF70E03C4BD3F8843018
:102F300003F00703013B032B16D801A252F823F03C
:102F4000512F0000572F0000632F00005D2F00005D
:102F50000323FB730BE00223FB7308E00A23FB73DC
:102F600005E00623FB7302E00123FB7300BF4DE085
:102F70002A4BD3F8883003F00703022B06D0042B2A
:102F800007D0012B08D10323FB7308E00223FB7356
:102F900005E00A23FB7302E00123FB7300BF35E069
:102FA0001E4B1B6F03F00103002B04D0012B05D136
:102FB0000923FB7305E00723FB7302E00123FB7386
:102FC00000BF23E0154BD3F85C3103F03003102B26
:102FD0000CD0102B02D8002B05D010E0202B08D0ED
:102FE000302B09D00BE00123FB730BE00723FB73AD
:102FF00008E00423FB7305E00823FB7302E00123D0
:10300000FB7300BF02E00023FB7300BFFB7B18468D
:103010001437BD465DF8047B704700BF00400E408A
:1030200080B58AB000AF78600B46FB7003237B62EB
:10303000032387F823300023BB6100237B617B6877
:10304000112B19D1FB78042B03D1FDF733F97861EB
:103050000BE0FB78052B08D100F05AF90246A44B8F
:103060009A4202D900F054F978617B69002B03D0B1
:103070000021786900F0C6FD7B6803F00F033B6117
:103080003B69013B072B00F2298101A252F823F092
:10309000B1300000A5310000B7310000DD32000082
:1030A000A93100004D320000DD3200006B3200001B
:1030B000FB78023B0A2B00F2138101A252F823F0A5
:1030C000ED300000F930000005310000173100003C
:1030D000E1320000E1320000E1320000E1320000A4
:1030E000E1320000293100003531000004237B6209
:1030F000002387F8233023E003237B62012387F832
:1031000023301DE002237B62022387F823307948B5
:10311000FFF70CF914E001237B62032387F82330C7
:103120007448FFF703F90BE005237B62032387F85C
:10313000233005E007237B62062387F8233000BF96
:1031400097F82330062B06D097F82330012201216F
:10315000184600F05BF9FFF7E7F9FFF7FDFA7B6926
:10316000002B01D0FFF7C6F8634A7B6A53676348B8
:10317000FFF782FB03461846FFF7D8F8FDF738F84B
:10318000F860FFF7C5F803461946F868FFF7EEF94F
:103190007B69002B03D10121002000F033FDFFF7F4
:1031A000E2FAA2E0564BBB61BB69002B01D0BB69C0
:1031B00000E0544BBB61BB69002B01D0BB6900E050
:1031C000514BBB61FB78013B092B00F28B8001A2C4
:1031D00052F823F0FD3100000332000013320000EA
:1031E000E5320000E532000023320000E532000045
:1031F000E5320000E53200003F3200000023FB61B1
:1032000020E001220121002000F000F90223FB61EF
:1032100018E001220121012000F0F8F80123FB61F0
:1032200010E0FCF7E5FF03461846FFF77FF80122A0
:1032300002213648FFF710F80323FB6102E0042364
:10324000FB6100BFBB69FA691A604EE0FB78072B8F
:1032500002D0092B04D048E0274B00221A6703E074
:10326000254B01221A6700BF3FE0FB78013B072B8B
:103270003AD801A252F823F099320000E932000056
:10328000E9320000AF320000E9320000E93200000C
:103290009F320000BF3200000023FB6112E00122D8
:1032A0000121042000F0B2F80123FB610AE00122B1
:1032B0000121022000F0AAF80223FB6102E00323AF
:1032C000FB6100BF0C4BD3F85C3123F03002FB698B
:1032D0001B0109491343C1F85C3106E000BF04E05B
:1032E00000BF02E000BF00E000BF2837BD4680BD40
:1032F000002D31010148E80100400E4000250A0080
:1033000080400E4088400E4084400E40B0400E4049
:1033100080B400AF034B1B681846BD465DF8047BC4
:10332000704700BF0C00002090B585B000AF7860FA
:103330001120FFF795FD01220021022000F066F820
:103340007B685B7883F00103DBB2002B0DD07B68D8
:103350009B7883F00103DBB2002B06D07B68DB781F
:1033600083F00103DBB2002B00BF0023FB607B680E
:103370001B7C022B01D10123FB60224B5B6A23F0F3
:1033800001022049FB6813434B627B681B781A4695
:1033900008211D48FEF760FF7B689B88DB027A6886
:1033A000527A1146174A0B43D362164B1B6B03F03C
:1033B0007F627B68DB88DB0213437A68927A1A4368
:1033C0007B681B7ADB0142EA03047B681B7A1846A0
:1033D000FFF7ECF803460B4A234313637B685B7BE0
:1033E0001A037B689B7B1B0113437A68D27B1A43C9
:1033F0007B681B7B1B04034913434B6300BF1437DB
:10340000BD4690BD00400E4024400E4080B588B0BF
:1034100000AF0346FB710B46BB7113467B71FB7912
:10342000042B00F2B88001A252F823F08934000086
:10343000773400005334000041340000653400004C
:1034400001237B6102233B610123FB610023BB61FC
:1034500025E004237B6108233B610323FB610223F6
:10346000BB611CE010237B6120233B610523FB61D2
:103470000423BB6113E040237B6180233B6107236E
:10348000FB610623BB610AE04FF480737B614FF45C
:1034900000733B610923FB610823BB6100BFBB795B
:1034A000002B5BD00023FB73FB79022B11D1FFF7BC
:1034B00099F80346002B0CD1394BDB6B0123FB73CE
:1034C000384B5B6A03F00103012B02D10120FFF7A7
:1034D00097F8344A7B69136600BFB9693248FEF732
:1034E000D2FE0346002BF8D07B79002B54D000BFCE
:1034F000F9692D48FEF7C7FE0346002BF8D0FB798B
:10350000022B49D1FB7B002B46D0264B5B6A03F094
:103510000103012B05D101222021022000F04AF9EC
:1035200003E00021022000F0FBF8022000F03EF84A
:10353000B860012200210220FFF768FFB96802206D
:1035400000F06EF8174A7B69136600BFF9691648E8
:10355000FEF799FE0346002BF8D01DE0114A3B69A7
:10356000136600BF0F4BD3F890300121BA6901FAFE
:1035700002F21340002BF5D17B79002B0CD000BF59
:10358000084BD3F890300121FA6901FA02F2134096
:10359000002BF5D100E000BF2037BD4680BD00BF45
:1035A00000300E4000400E4090400E4080B485B088
:1035B00000AF0346FB71FB79013B032B23D801A22B
:1035C00052F823F0D5350000F9350000E135000050
:1035D000ED350000114B1B6AC3F30803FB6015E0D7
:1035E0000E4B1B6903F07F03FB600FE00B4B9B69E5
:1035F00003F07F03FB6009E0084BD3F89C30C3F372
:103600000A03FB6002E00023FB6000BFFB68184672
:103610001437BD465DF8047B704700BF00400E4084
:1036200080B584B000AF03463960FB71FB79013B84
:10363000032B6AD801A252F823F000BF4D360000D8
:10364000CF3600007B360000A53600003B68C3F390
:1036500008033B6000BF1A212E48FEF714FE034604
:10366000002BF8D12C4B1B6A23F4FF7323F00103CA
:1036700029493A6813430B6248E03B6803F07F0333
:103680003B6000BF18212348FEF7FDFD0346002BD9
:10369000F8D1214B1B6923F07F021F493B6813437C
:1036A0000B6133E03B6803F07F033B6000BF1921EF
:1036B0001848FEF7E8FD0346002BF8D1164B9B692E
:1036C00023F07F0214493B6813438B611EE0124BC9
:1036D000D3F89030104B5B6A23F030030E4A43F06E
:1036E000100353623B68DB0903F00F031846FEF733
:1036F0005DFFF860084B1A6B084B13403A681A4399
:103700000549FB6813430B6300E000BF00BF10379F
:10371000BD4680BD40410E4000400E4000F8FF0F06
:1037200080B584B000AF03460A46FB711346BB71F7
:10373000FEF758FF0346002B03D14FF44003FB6014
:1037400016E0BB79202B04D0302B0AD0002B04D0FC
:103750000BE04FF40003FB600AE04FF44003FB6012
:1037600006E04FF44003FB6002E0104BFB6000BF3B
:1037700000BF0F4BD3F89020FB681340FA689A42C1
:10378000F7D1FB6803F48003002B0AD0084BD3F871
:10379000A03003F48063002B14BF01230023DBB2AD
:1037A00000E0012318461037BD4680BDFF33E10716
:1037B00000400E4080B582B000AF0346FB710B465F
:1037C000BB7113467B71FB79022B00D016E0BB79ED
:1037D000002B07D00C4B4FF48062C3F8A8200A4A94
:1037E000BB7953667B79002B07D0BA79FB791146F8
:1037F0001846FFF795FF034601E000BF0123184676
:103800000837BD4680BD00BF00400E4080B483B085
:1038100000AFEFF310833B603B687B6072B67B6860
:1038200018460C37BD465DF8047B704780B483B002
:1038300000AF78607B68002B00D162B600BF0C3708
:10384000BD465DF8047B704780B500AFFCF7D0FC47
:1038500000BF80BD80B487B000AFF860B9607A6007
:10386000FB6803F10473DA00BB6813449B007B61BF
:103870007B697A681A6000BF1C37BD465DF8047B1F
:10388000704780B485B000AF786039607B6803F121
:103890000473DA003B6813449B00FB60FB681B6801
:1038A00018461437BD465DF8047B704780B500AFFD
:1038B00000BF12210348FFF7E4FF0346002BF8D1B5
:1038C00000BF80BD04300E4080B500AFFFF7EEFFB3
:1038D000034B5B681B0C03F00303DBB2184680BD8F
:1038E00000300E4080B483B000AF7860044A7B683B
:1038F000D36200BF0C37BD465DF8047B704700BF44
:1039000000300E4080B400AF034B5B6A1846BD46E2
:103910005DF8047B704700BF00300E4080B400AFFC
:10392000034B00225A6300BFBD465DF8047B70471D
:1039300000300E4080B400AF044B4AF6E8525A63A0
:1039400000BFBD465DF8047B704700BF00300E40ED
:1039500080B400AF044B0022C3F8802100BFBD46F5
:103960005DF8047B704700BF00400E4080B400AF9C
:10397000044B45F60E02C3F8802100BFBD465DF83A
:10398000047B704700400E4080B483B000AF034614
:10399000FB71FB79C3F10203102202FA03F318460C
:1039A0000C37BD465DF8047B7047000090B585B0CC
:1039B00000AF0346FB71FB79002B1BD1484BD3F8BA
:1039C0009030484A13601120FFF74AFA03461A461E
:1039D000454B1A70FFF76AFF444B5B681B0CDBB268
:1039E00003F00303DAB2424B1A703D4B1B69414AA4
:1039F000136070E03E4B1B783C4C1846FFF7C4FF49
:103A000003462361364BD3F8803103F00103FB609A
:103A1000FFF7ACFF0023BB60324B1B6803F00103D0
:103A2000BA681343BB602F4B1B6803F01003BA68DE
:103A30001343BB602B4B1B6803F04003BA6813436E
:103A4000BB60284B1B6803F00403BA681343BB60D8
:103A5000244B1B6803F48073BA681343BB60204A8D
:103A6000BB681366FFF722FF204B1B6803F01003AF
:103A7000002B18D000BF1A4BD3F8403103F08073ED
:103A8000002BF8D1164A1B4B1B681361164B1B7891
:103A9000052B08D1184B1C68FFF716FF0346194683
:103AA0002046FEF763FD104B1B78052B05D00E4B0F
:103AB0001B7819461120FFF7B3FA0A4B1B6803F075
:103AC0000103002B02D1064B02221A66FB68002B71
:103AD00001D0FFF73DFF00BF1437BD4690BD00BFCA
:103AE00000400E40F4090020F809002000300E408C
:103AF000F9090020FC0900200C00002080B582B0EC
:103B000000AFFFF7D3FE104B1B681B0A03F0030343
:103B10007B600D4B5B681B0C03F003033B607A6812
:103B20003B689A4206D9084B1B68074A43F01003CA
:103B3000136005E0044B1B68034A23F01003136075
:103B400000BF0837BD4680BD00300E4080B483B052
:103B500000AF0C4B1B6803F01003002B0BD00A4B7B
:103B60001B691B0C03F01F037B607B68082B02D1D1
:103B7000064B074A1A6000BF0C37BD465DF8047B50
:103B8000704700BF00300E4000400E400C00002087
:103B9000C0EA210180B400AF00BFBD465DF8047BE0
:103BA000704780B400AF00BFBD465DF8047B70472E
:103BB00080B582B000AF0346FB71FB79002B02D0C9
:103BC0000020FFF7F3FEFFF799FF0D4B1B690C4A2E
:103BD00043F004031361FFF7DDFF30BFFFF7E1FFA0
:103BE000FB79002B03D00120FFF7E0FE03E0FFF795
:103BF000ADFFFFF729FE00BF0837BD4680BD00BFFF
:103C000000ED00E080B584B000AF78600B46FB703B
:103C1000154BD3F800311B0A03F01F030133BB60BF
:103C20007B68002B07D1FCF70DFB0246BB6802FB4B
:103C300003F3FB6001E07B68FB600C4B1B78002BFF
:103C400009D0FB680A4A934205D8FB78194602203E
:103C500000F010F804E0FB781946002000F00AF8A4
:103C600000BF1037BD4680BD00400E40F009002067
:103C7000FF2C310190B587B000AF03460A46FB71B7
:103C80001346BB711B4BD3F800311B0A03F01F0313
:103C900001337B61FCF7D6FA3861FFF715FE034666
:103CA000FB73FA7BFB799A421FD03B697A6902FB6E
:103CB00003F3BB60FB79022B03D102213869FEF7C5
:103CC00055FC0D4CFB791846FFF75EFE0346236159
:103CD000BB79002B01D0FFF7E9FDFB79002B05D163
:103CE00000213869FEF742FC00E000BF1C37BD46EA
:103CF00090BD00BF00400E4000300E4080B400AFC9
:103D000001231846BD465DF8047B704780B582B03C
:103D100000AF0C4BDB6E0B4A43F08073D36600217F
:103D20000948FFF7AEFD78607B68002B03D00420C4
:103D300000F0B0FC02E0002000F0ACFC00BF08374F
:103D4000BD4680BD00300E404C300E4080B48BB07C
:103D500000AF01237B627B6A1B053B62324BDB6C4D
:103D60001B0A03F00F03FB61304B1B881A462F4BD5
:103D70001B8828335B08134403F12801FB695A1C94
:103D800013469B001344B1FBF3F3013BBB61BB69DA
:103D90007B6107233B613A697B69934228BF1346E5
:103DA000BB61BB691B06BB611F4BDB6C23F0EE6282
:103DB000B9693B6A0B431C491343CB641C4BB3F9F1
:103DC0000030002B29DB1A4BB3F90030FB81FA8954
:103DD000FB8928335B08134403F12802FB69013394
:103DE0005900FB6901335B080B44B2FBF3F3BB6082
:103DF000BB687B6007233B603A687B68934228BFBF
:103E00001346BB60BB681B01BB60074B1B6D23F0F7
:103E100070020549BB6813430B6500BF2C37BD46D4
:103E20005DF8047B704700BF00300E40E8090020B9
:103E3000EC09002080B483B000AF78600B467B8033
:103E40007B689AB2054B1A80054A7B88138000BFB5
:103E50000C37BD465DF8047B704700BFE8090020C1
:103E6000EC09002080B483B000AF0346FB71FB79FE
:103E7000002B02D0012B04D007E0074B074A9A65BC
:103E800003E0054B064A9A6500BF00BF0C37BD46EC
:103E90005DF8047B704700BF00300E40774020572C
:103EA000372110B780B485B000AF0346FB710B46D5
:103EB000BB7113467B712D4BD3F88031FB60BB790E
:103EC000032B1DD801A252F823F000BFDD3E0000F5
:103ED000E53E0000EF3E0000F93E0000FB68DBB26B
:103EE000FB600FE0FB681B0ADBB2FB600AE0FB68CB
:103EF0001B0CDBB2FB6005E0FB681B0EFB6001E006
:103F000000232CE07B79002B11D1FB681B03FB60A5
:103F1000FB6823F47043002B01D000231FE0144BF7
:103F2000DB6E23F470421249FB681343CB667B7946
:103F3000012B13D1FB681B03FB60FB6823F4704368
:103F4000002B01D000230AE0094BD3F8EC3023F416
:103F500070420749FB681343C1F8EC30012318464F
:103F60001437BD465DF8047B704700BFB081E00F99
:103F700000300E4080B489B000AFF860B9601146DF
:103F80001A460B46FB711346BB710023FB610023ED
:103F9000BB61BB791B02FA79002A01D0012200E043
:103FA000002213437B617B6940F2011293422AD0C5
:103FB000B3F5817F07D2012B19D0012B47D3B3F57D
:103FC000807F50D073E040F20122934227D040F22C
:103FD0000122934203D8B3F5007F50D067E0B3F5D8
:103FE000407F58D040F20132934224D05FE0364BFC
:103FF000D3F87431FB61FB691B0ADBB2BB61FB695F
:10400000DBB2FB6153E0304BD3F87431FB61FB69E9
:104010001B0EBB61FB691B0CDBB2FB6147E02A4B4B
:10402000D3F87831FB61FB691B0ADBB2BB61FB692A
:10403000DBB2FB613BE0244BD3F87831FB61FB69D9
:104040001B0EBB61FB691B0CDBB2FB612FE01E4B3F
:10405000D3F86C31FB61FB691B0ADBB2BB61FB6906
:10406000DBB2FB6123E0184BD3F86C31FB61FB69D9
:104070001B0EBB61FB691B0CDBB2FB6117E0124B33
:10408000D3F87031FB61FB691B0ADBB2BB61FB69D2
:10409000DBB2FB610BE00C4BD3F87031FB61FB69C9
:1040A0001B0EBB61FB691B0CDBB2FB6100BFFB6835
:1040B000FA691A60BB68BA691A6000BF2437BD4646
:1040C0005DF8047B704700BFB081E00F80B584B01D
:1040D00000AF0346FB713E4B5B6B012B0CBF012312
:1040E0000023FB73FFF726FC00BF394B9B6F03F0E7
:1040F0000103002BF9D1364B1B6C03F00303BB60AB
:10410000BB68002B04D001220D213248FFF7A2FB2F
:10411000BB68DBB2FA799A4208D1FB79002B53D104
:1041200000220D212B48FFF795FB4DE0BB68032BC8
:1041300002D0BB68002B20D1FB79022B02D0FB7987
:10414000012B1AD14FF40020FFF7CCFB00BF204B0E
:104150009B6F03F00103002BF9D11D4B1B6C23F067
:1041600003031B4A43F00103136400BFFFF7CAFBBC
:10417000034603F40023002BF8D000BF144B9B6FC1
:1041800003F00103002BF9D1114B1B6C23F0030248
:10419000FB790F4913430B6400BF0D4B9B6F03F07A
:1041A0000103002BF9D1FB79002B14BF012300235D
:1041B000DBB21A460D210748FFF74CFBFB7B002BB7
:1041C00003D0FFF7ABFB00E000BF1037BD4680BD5A
:1041D00000300E4054300E4080B584B000AF78609F
:1041E000484B02229A63474B9B6B03F00F03022B51
:1041F00001D0002381E0FFF781FD7B685B78012B14
:1042000002D07B685B78022B7B68DB884A2B02D864
:104210000023FB6015E07B68DB88B3F5FA7F03D2EF
:104220004FF08053FB600CE07B68DB8840F6C312E4
:10423000934203D84FF00053FB6002E04FF040532D
:10424000FB60304BDB6C23F0405323F001037A68B2
:10425000B2F90C20002A01DB012100E00021FA68FC
:104260000A4328491343CB64264BD3F8EC30254A44
:1042700043F44073C2F8EC30FFF748FD7B681B89BC
:104280001A467B68B3F90C3019461046FFF7D2FD89
:104290007B689A881C4B1A807B689B88184600F0C4
:1042A0008DF97B689B7B1846FFF7DCFD7B685B889C
:1042B00001220121184600F02BF8034683F0010388
:1042C000DBB2002B01D0002317E00E4BDB6B0D4A55
:1042D00043F48063D3637B685B781846FFF7F6FE90
:1042E0007B689B7A202B01D1012300E000231A4632
:1042F00005210648FFF7AEFA012318461037BD46E0
:1043000080BD00BF00300E40EA0900203C300E4066
:1043100090B595B000AF78600B46FB701346BB704C
:104320000023FB6400237B6407F1240300221A604E
:104330005A609A6007F1180300221A605A609A6066
:1043400007F10C0300221A605A609A6007F1080313
:1043500000210A461A800A469A707B68B3F5E16F1D
:1043600006D37B6840F6B832934201D8012300E0BF
:10437000002387F8433097F8433003F0010387F8B0
:10438000433097F8433083F00103DBB2002B01D0B8
:1043900000230AE17B68B3F5E16F8CBF01230023A2
:1043A00087F8423097F84230002B0AD04FF4E1638F
:1043B000FB6440F6B8337B647A6CFB6CD31ABB6445
:1043C00009E04FF49663FB644FF4E1637B647A6C1D
:1043D000FB6CD31ABB6497F84230002B0BD0754BA3
:1043E000D3F868313B623B6A1B0E7B613B6A1B0C56
:1043F000DBB23B620AE06F4BD3F868313B623B6A49
:104400001B0ADBB27B613B6ADBB23B626A4BDB6C53
:104410001B0FDBB203F00303DBB23B723B7A97F86E
:10442000422007F10C0107F11800FFF7A3FD624BD2
:10443000D3F8EC301B0ADBB203F00303DBB27B7270
:104440007C7A97F8422007F10C03191D07F1180335
:10445000181D2346FFF78EFD7A68FB6CD31A796925
:104460003A6A8A1A02FB03F2BB6CB2FBF3F3FB62FB
:10447000FA6A3B6A1344FB627A68FB6CD31AF968E8
:10448000BA698A1A02FB03F2BB6CB2FBF3F37B62DC
:104490007A6ABB6913447B627A68FB6CD31A396908
:1044A000FA698A1A02FB03F2BB6CB2FBF3F3BB623C
:1044B000BA6AFB691344BB62FA6A7B699A4213D8F1
:1044C000FA6A3B6A9A420FD3BA6A3B699A420BD89E
:1044D000BA6AFB699A4207D37A6AFB689A4203D8A0
:1044E0007A6ABB699A4201D200235EE0BB78002B56
:1044F00012D0314BDB6D23F4FE4323F00203FA6A42
:104500001202134397F84220002A01D0022200E051
:10451000002229491343CB65FB78002B44D0397A1C
:1045200097F8423000221846FFF7BCFC034683F0A0
:104530000103DBB2002B01D0002336E0797A97F833
:10454000423001221846FFF7ADFC034683F0010319
:10455000DBB2002B01D0002327E07B6AFB63BB6A40
:10456000BB63BA6BFB6B934238BF13467B627B6ABB
:104570007B63E7233B633A6B7B6B934228BF134615
:104580007B620D4B5B6E23F4FF7323F001037A6AA9
:104590005200134397F84220002A01D0012200E084
:1045A0000022054913434B66012318465437BD4684
:1045B00090BD00BFB081E00F00300E4080B584B0E8
:1045C00000AF78600023FB60314B1B6F03F00703E3
:1045D000BB602F4BDB6C03F00103002B14D0BB68D6
:1045E000012B11D97B68132B02D80423FB6037E021
:1045F0007B68132B05D97B68272B02D80823FB6027
:104600002EE01023FB602BE0214BDB6C03F0010359
:10461000002B14D1BB68012B11D87B68092B02D861
:104620000423FB601CE07B68092B05D97B68132BF6
:1046300002D80823FB6013E01023FB6010E0144B4A
:10464000DB6C03F00103002B0AD0BB68012B07D8F9
:104650007B68272B02D80823FB6001E01023FB6056
:10466000FB68013BFB60FB681A02FB681B031343FA
:10467000FB60074BDB6C23F47F420549FB68134367
:10468000CB64FFF763FB00BF1037BD4680BD00BFA2
:1046900000300E4080B584B000AF0346FB710021AE
:1046A0000E48FFF7EEF8F860FB68002B02D1FB79AB
:1046B000012B01D9FB68002B00BF094B1B6F23F0B6
:1046C0000702FB79064913430B67064B1B88184604
:1046D000FFF774FF00BF1037BD4680BD4C300E4061
:1046E00000300E40EA09002080B485B000AF786049
:1046F00039607B6803F1C063FB60FB683A681A604D
:1047000000BF1437BD465DF8047B704780B485B0A8
:1047100000AF786039607B6803F18063FB60FB6801
:104720003A681A6000BF1437BD465DF8047B7047D5
:1047300080B582B000AF03463960FB71FB79002B76
:104740001CD0FB79012B19D0FB79022B16D0FB79F9
:10475000032B13D0FB79042B10D0FB79052B0DD044
:10476000FB79062B0AD0FB79072B07D0FB79082BA6
:1047700004D0FB79092B01D0FB790A2BFA79134677
:104780005B0013441B010C3303F1804303F520430A
:1047900001213A6801FA02F211461846FFF7B6FF06
:1047A00000BF0837BD4680BD80B582B000AF03466C
:1047B0003960FB71FB79002B1CD0FB79012B19D0E0
:1047C000FB79022B16D0FB79032B13D0FB79042B3A
:1047D00010D0FB79052B0DD0FB79062B0AD0FB7985
:1047E000072B07D0FB79082B04D0FB79092B01D0CC
:1047F000FB790A2BFA7913465B0013441B010C3337
:1048000003F1804303F5204301213A6801FA02F2E3
:1048100011461846FFF768FF00BF0837BD4680BD48
:1048200080B584B000AFB9607B600346FB7313466C
:10483000BB73FB7B002B1CD0FB7B012B19D0FB7BBC
:10484000022B16D0FB7B032B13D0FB7B042B10D049
:10485000FB7B052B0DD0FB7B062B0AD0FB7B072BAC
:1048600007D0FB7B082B04D0FB7B092B01D0FB7B03
:104870000A2BBB7B002B0DD07B68002B05D0FB7B6C
:10488000B9681846FFF790FF04E0FB7BB96818464B
:10489000FFF74EFFBB68072B20D82E49FA7B134643
:1048A0005B0013441B010B4404331A68BB689B0074
:1048B0000F2101FA03F3DB431340B97BBA6892007E
:1048C00001FA02F211462348FA7B194313465B00B2
:1048D00013441B0103440433196025E01D49FA7B8E
:1048E00013465B0013441B010B4408331A68BB6872
:1048F00003F18043083B9B000F2101FA03F3DB43E4
:1049000002EA0301BA7BBB6803F18043083B9B00CA
:1049100002FA03F30F48FA7B194313465B00134472
:104920001B01034408331960BB7B002B0DD17B684E
:10493000002B05D0FB7BB9681846FFF735FF04E074
:10494000FB7BB9681846FFF7F3FE00BF1037BD4682
:1049500080BD00BF00A0004080B483B000AF78608D
:1049600039607B683A68DA6300BF0C37BD465DF892
:10497000047B704780B487B000AFF860B9607A609C
:10498000FB6803F10473DA00BB6813449B007B618E
:104990007B697A681A6000BF1C37BD465DF8047BEE
:1049A000704780B485B000AF786039607B6803F1F0
:1049B000C063FB60FB683A681A6000BF1437BD46ED
:1049C0005DF8047B704780B485B000AF78603960D3
:1049D0007B6803F18063FB60FB683A681A6000BF84
:1049E0001437BD465DF8047B704780B584B000AFD6
:1049F000F860B9607A60B968F868FFF7E4FF796831
:104A0000F868FFF7CEFF00BF1037BD4680BD80B409
:104A100083B000AF786001E07B68DB697B68DB68AE
:104A200003F48073002BF7D100BF0C37BD465DF84F
:104A3000047B704780B588B000AFF860B9607A60D9
:104A4000FB707B68002B77D0FB7803F00303FB70CF
:104A5000FB681B6823F44072FB681A60F868FB78F7
:104A60001B021A464FF44071FFF7BFFFBB68002BD3
:104A700010D1FB68334A934204D13348FDF7FCFE62
:104A8000B86007E0FB68314A934203D13048FDF734
:104A9000F3FEB8604FF0FF33BB61FB681B6803F0A7
:104AA0000203002B10D0FB78012B07D0022B08D07B
:104AB000002B00D019E0274BBB6116E0264BBB61F1
:104AC00013E0264BBB6110E0FB78012B07D0022BD3
:104AD00008D0002B00D008E01E4BBB6105E0204B46
:104AE000BB6102E01F4BBB6100BFFB781E4AD35C79
:104AF0007B617B697A6802FB03F33B613B69002BB6
:104B00001CD07B68DB00BA68D21A3B6913445A1E7A
:104B10003B69B2FBF3F3013BFB61FB681B6803F0ED
:104B20000203002B04D0FB69002B01D10123FB61A0
:104B3000FA69FB681A6102E000BF00E000BF20379D
:104B4000BD4680BD00C000400082040000C400409B
:104B50000092040080841E00404B4C00809FD500D2
:104B600040548900002D31012074000080B582B0CE
:104B700000AF78600B46FB707B68084A934202D016
:104B80007B68074A934200BF7B68FA780021184689
:104B9000FFF7F0FE00BF0837BD4680BD00C00040F3
:104BA00000C4004080B582B000AF786039607B6897
:104BB000154A934202D07B68144A934200BF7B6837
:104BC00000221A6412497868FFF7C6FE78683B68CD
:104BD0005B7883F00103DBB21A460121FFF7CAFEBE
:104BE0003B6859683B689A683B681B7B7868FFF7AD
:104BF00021FF3B681B7819467868FFF7B7FF00BFB5
:104C00000837BD4680BD00BF00C0004000C4004062
:104C1000FFFF070080B588B000AF78607B68A04ACE
:104C2000934202D07B689F4A934200BF7B689C4AB4
:104C3000934202D19C4BBB6109E07B68994A934245
:104C400002D19A4BBB6102E06FF0030313E2BB6930
:104C50009B687B617B685B6B3B613B6903F4C06372
:104C6000002B14D03B6903F40073002B03D0BB6905
:104C7000FD225A7007E03B6903F48063002B02D0E9
:104C8000BB69FE225A70BB6909221A70DEE1BB695A
:104C90001B78082B00F2C68101A252F823F000BF56
:104CA000C54C0000174D0000A34D0000F94D000059
:104CB0004B4E0000B14E0000394F0000794F00000C
:104CC000095000007B695B8803F01003002B09D0BA
:104CD0007B691B881B0A9BB203F0060343F0F003B9
:104CE000FB610EE07B691B8803F0FE03FB617B69BF
:104CF0005B8803F00203002B03D0FB6943F0010340
:104D0000FB61BB6901221A707B68FA69DA627B6811
:104D100001225A609AE13B6903F08003002B0DD019
:104D200080217868FFF718FEBB69FF225A70BB69C3
:104D300008221A707B6802225A607CE13B6903F00A
:104D40004003002B00F0778140217868FFF704FED4
:104D50007B695B8803F01003002B08D0BB6902223B
:104D60001A707B691B88DAB27B68DA6263E17B695F
:104D70005B8803F00203002B0FD0BB6907221A7077
:104D8000BB691B797A69DB0013441B89012B40F056
:104D900052817B6808225A604DE1BB6905221A7076
:104DA00048E13B6903F08003002B0DD08021786837
:104DB000FFF7D2FDBB69FF225A70BB6908221A7047
:104DC0007B6802225A6038E13B6903F04003002B04
:104DD00000F0338140217868FFF7BEFD7B695B8876
:104DE00003F00203002B03D0BB6903221A7021E1F8
:104DF000BB6905221A701DE17B695B8803F0100313
:104E0000002B09D07B691B881B0A9BB203F00603A9
:104E100043F0F003FB6104E07B691B8803F0FE03B1
:104E2000FB617B695B8803F00403002B03D0FB6903
:104E300043F00103FB61BB6904221A707B68012205
:104E40005A607B68FA69DA6200E13B6903F080032B
:104E5000002B0DD080217868FFF77EFDBB69FF2213
:104E60005A70BB6908221A707B6802225A60E6E019
:104E70003B6903F04003002B00F0E180402178689B
:104E8000FFF76AFD7B695B8803F00403002B03D006
:104E9000BB6907221A70D2E0BB6905221A70C9E00B
:104EA00000C0004000C40040000A00200C0A00209E
:104EB000BB695A88BB691B797969DB000B441B8984
:104EC0009A4224D3BB6900225A80BB691B79013303
:104ED000DAB2BB691A717B695B8803F00403002BAB
:104EE00003D0BB6903221A70A4E07B695B8803F0DE
:104EF0000103002B04D1BB691B79012B40F299807F
:104F0000BB6908221A707B6802225A609EE0BB6966
:104F10001B797A69DB0013445A68BB695B88591CAA
:104F200088B2B969488013441B781A467B68DA62F4
:104F3000BB6906221A7089E03B6903F08003002BED
:104F40000DD080217868FFF707FDBB69FF225A70FA
:104F5000BB6908221A707B6802225A6071E03B69C3
:104F600003F04003002B6CD040217868FFF7F4FC7D
:104F7000BB6905221A705DE03B6903F02003002B3A
:104F800061D0BB691B797A69DB0013441B89FB6024
:104F90007B68DB69FB72BB695B881A46FB689342DE
:104FA0000ED9BB691B797A69DB0013445A68BB6967
:104FB0005B88591C88B2B96948801344FA7A1A7020
:104FC000BB695B881A46FB6893420CD8FB68012BCF
:104FD00002D17B6808225A60BB6908221A707B687C
:104FE00002225A602FE07B6804225A60FB68012B82
:104FF00029D9BB695B881A46FB68013B9A4222D1DA
:105000007B6808225A601EE03B6903F48073002B22
:105010001BD04FF480717868FFF79EFCBB690922B2
:105020001A7012E0BB69FB225A70BB6909221A7020
:105030000CE000BF0EE600BF08E000BF06E000BFC6
:1050400004E000BF02E000BF00E000BFBB691B78C6
:10505000092B0BD17B6800221A64BB6993F90130DC
:10506000012B05D1BB6900225A7001E0012302E047
:10507000BB6993F9013018462037BD4680BD00BF9B
:1050800080B584B000AF786039607B682F4A934266
:1050900002D07B682E4A934200BF7B682B4A934222
:1050A00002D12C4BFB6009E07B68294A934202D174
:1050B000294BFB6002E06FF0030342E07B689B68D2
:1050C00003F00103002B02D07B6820225A603B686A
:1050D0005B8803F00203002B03D03B681B89002B85
:1050E00009D03B685B8803F00403002B06D03B68C3
:1050F0001B8A002B02D16FF0030322E0FB68002221
:105100001A70FB6801225A70FB6800225A80FB6803
:1051100000221A71FB683A689A607B68C0225A6064
:105120007868FFF774FC0D497868FFF715FC7B6819
:105130001B6C43F4FC627B681A647868FFF76AFDB5
:10514000034618461037BD4680BD00BF00C0004072
:1051500000C40040000A00200C0A0020FFFF0700E6
:1051600080B487B000AFF860B9607A60FB6803F183
:105170000473DA00BB6813449B007B617B697A6827
:105180001A6000BF1C37BD465DF8047B7047000005
:1051900080B483B000AF786039603B681B781A46F2
:1051A0003B685B789B001A433B689B789B011A43E2
:1051B0003B68DB781B011A433B681B79DB021A430F
:1051C0003B685B791B031A433B689B795B04064988
:1051D0001A437B6804331B010B441A6000BF0C3771
:1051E000BD465DF8047B70470020044080B582B066
:1051F00000AF0346FB71FB791A4600210348FFF715
:10520000AFFF00BF0837BD4680BD00BF002004408F
:1052100080B483B000AF78607B681B78002B01D02E
:10522000012200E000227B685B78002B01D0042380
:1052300000E0002313437A689278002A01D01022FC
:1052400000E0002213437A68D278002A01D020229D
:1052500000E000221A437B681B791B021A437B681B
:105260005B791B0313437A689279002A02D04FF4CA
:10527000004200E000221A437B68DB791B041343E1
:105280007A68127A002A02D04FF4003200E000223D
:10529000044913430B6000BF0C37BD465DF8047B27
:1052A000704700BF0020044080B483B000AF786036
:1052B0000B46FB70FB7863F07F03DBB21A467B681A
:1052C0009A6500BF0C37BD465DF8047B704700004F
:1052D00080B586B000AFF860B9607A60BB68002B1B
:1052E00003D10A48FDF7C8FAB860BB685A1E7B684C
:1052F0005B00B2FBF3F37B617B691B027B61FB68A4
:105300007A695A6100BF1837BD4680BD404105002B
:1053100080B582B000AF786039607B68384A9342CC
:105320000AD07B68374A934206D07B68364A93425C
:1053300002D07B68354A934200BF786800F068F875
:105340007B681A683B681B8A43F001039BB21946CD
:105350003B689B7B002B02D04FF4806300E000236E
:105360000B431A437B681A607B681B683A68127D9E
:10537000002A02D04FF0005200E000221A437B685E
:105380001A603B689B7C002B05D03B68DB7C194690
:105390007868FFF789FF3B681B7B43F480527B688A
:1053A0005A603B6859683B689B681A467868FFF703
:1053B0008FFF3B685B7B002B02D07B681022DA609A
:1053C0003B685B7D002B05D07B681B6843F4803213
:1053D0007B681A603B689B7D1B0703F0E0423B68DB
:1053E000DB7D1B0503F4E0031A437B681A663B6808
:1053F0001B781A467B68DA6000BF0837BD4680BD5F
:10540000000001400004014000080140000C014080
:1054100080B483B000AF78607B682C4A93420AD096
:105420007B682B4A934206D07B682A4A934202D07B
:105430007B68294A934200BF7B6840F6AA62DA6023
:105440007B6800221A607B6841F205025A607B6823
:1054500000229A607B6800225A617B680022DA642D
:105460007B681E4A9A647B6800221A667B68002269
:105470005A677B6800229A677B680022DA677B683C
:10548000124A93420BD07B68114A934207D07B6843
:10549000104A934203D07B680F4A934202D17B6843
:1054A00000221A657B6800229A657B68084A93424D
:1054B00003D07B68084A934202D17B680022DA65F8
:1054C00000BF0C37BD465DF8047B7047000001400B
:1054D0000004014000080140000C0140F9FF0100F8
:1054E00080B483B000AF78600B46FB7000BF7B6870
:1054F0001B6903F04003002BF9D0FA787B685A63EC
:1055000000BF0C37BD465DF8047B704780B483B0A4
:1055100000AF78600B467B8000BF7B681B6903F09F
:105520004003002BF9D07A887B68DA6300BF0C3720
:10553000BD465DF8047B704780B582B000AFFAF7D6
:10554000F9FE78607B68002B00D0FEE70020FCF7B6
:1055500053FB78607B68002B00D0FEE70B48FCF71C
:105560009BFD78607B68002B00D0FEE7074B002294
:105570005A60064B6FF07F429A6005490348FCF77A
:1055800049FE00BF0837BD4680BD00BF180A002095
:10559000B870000080B400AF044BDB6C1B0EDBB2B4
:1055A0001846BD465DF8047B704700BFB081E00F30
:1055B00080B582B000AF164B01225A64FFF7EAFFB4
:1055C0000346FB71FB79002B0CD1124B4AF6E852D3
:1055D0001A60114B1B68104A43F0040313600D4B13
:1055E00000221A60FB79012B05D80C4B1B680B4A73
:1055F00043F4005313600A4B1B6A23F44413084A14
:1056000043F48813136200BF0837BD4680BD00BF56
:1056100000000E4090310E4098310E4064310E4033
:1056200000400E4080B58CB000AFF8607A601A463A
:105630000B46FB721346BB72FB7A9BB23B8304237F
:105640007B83BB7A3B7407F11003FB6101233B842E
:1056500007F114037B6201233B8507F11803194608
:10566000F868FBF775FB034687F82F3097F92F3062
:10567000002B05D07B6800221A6097F92F3000E0DC
:10568000002318463037BD4680BD80B58CB000AFD2
:10569000F8607A601A460B46FB721346BB72FB7ABF
:1056A0009BB23B8304237B83BB7A3B7407F11003DB
:1056B000FB6100233B8407F114037B6203233B85DA
:1056C00007F118031946F868FBF742FB034687F811
:1056D0002F3097F92F30002B05D07B6800221A60FD
:1056E00097F92F3009E03B7D1A047B7D1B021344A0
:1056F000BA7D1A447B681A60022318463037BD46CB
:1057000080BD90B58DB000AFF8607A601A460B4648
:10571000FB721346BB72FB7A9BB23B8304237B83F1
:10572000BB7A3B7407F11003FB6101233B8407F153
:1057300014037B6201233B8507F118031946F868BF
:10574000FBF706FB034687F82F3097F92F30002B25
:1057500009D07A684FF000034FF00004C2E900342A
:1057600097F92F3000E0002318463437BD4690BD2E
:105770002DE9F04B8EB000AFF8607A601A460B4608
:10578000FB721346BB72FB7A9BB23B8404237B847F
:10579000BB7A3B7507F114037B6200233B8507F15D
:1057A0001803FB6207233B8607F120031946F868BC
:1057B000FBF7CEFA034687F8373097F93730002BDE
:1057C00009D07A684FF000034FF00004C2E90034BA
:1057D00097F937305CE03B7EDBB24FF000044FF0CE
:1057E00000014FF000021A0400217B7E5FFA83F86B
:1057F0004FF000094FF000034FF000044FEA082477
:10580000002311EB030B42EB040CBB7E5FFA83F821
:105810004FF000094FF000034FF00004444600230E
:105820001BEB03014CEB0402FB7EDBB24FF00004E8
:105830001E0A1D0615EB010846EB02093B7FD9B293
:105840004FF000024FF000034FF00004140444EA4C
:1058500011440B0418EB030549EB04067B7FD9B216
:105860004FF000024FF000034FF00004140244EA2E
:1058700011640B02E91846EB0402BB7FDDB24FF066
:1058800000066B1846EB02047A68C2E90034022372
:1058900018463837BD46BDE8F08B000080B584B0AF
:1058A00000AF0346FB711D4B1868FB7907F10C0232
:1058B0000021FFF7B7FE1A48FCF7FEF8174B1868EF
:1058C000FB7907F10C020121FFF7DFFE1448FCF71A
:1058D000F3F8124B1868FB790133DBB207F10802C9
:1058E0000021FFF79FFE0E48FCF7E6F80B4B186807
:1058F000FB790133DBB207F108020121FFF7C5FE96
:10590000BB689AB2074B1A80FB689AB2054B5A8063
:10591000044B1B6818461037BD4680BD5C0A00204A
:10592000A0860100780A002080B582B000AF202355
:105930007B606AE07B68DBB21846FFF7AFFF386038
:105940007B68203B162B5DD801A252F823F000BFE4
:10595000AD590000055A0000B5590000055A000075
:10596000BD590000055A0000C5590000055A000045
:10597000CD590000055A0000D5590000055A000015
:10598000055A0000055A0000DD590000055A0000C4
:10599000E5590000055A0000ED590000055A0000C5
:1059A000F5590000055A0000FD5900001A4A3B68ED
:1059B000136027E0194A3B68136023E0184A3B68EC
:1059C00013601FE0174A3B6813601BE0164A3B68F0
:1059D000136017E0154A3B68136013E0144A3B68F4
:1059E00013600FE0134A3B6813600BE0124A3B68F8
:1059F000136007E0114A3B68136003E0104A3B68FC
:105A0000136000BF7B6802337B607B68362B91DDBF
:105A100000BF0837BD4680BD740A0020800A002000
:105A2000900A0020A00A0020A40A0020840A002076
:105A30009C0A0020880A00208C0A00207C0A002092
:105A4000980A002080B500AF01210548FCF7AEFEA2
:105A5000012304220A210120FEF7E2FE00BF80BDDF
:105A600000350A0080B582B000AF78603960054B20
:105A70001B68054A12681046984700BF0837BD46A4
:105A800080BD00BF440A0020480A002080B588B0CD
:105A900002AFF860B9607A600D4AFB6813600D4A86
:105AA000BB68136007F114031846FBF763FA7869C3
:105AB0004FF47A727B68B2FBF3F200230093064B3B
:105AC0000121FBF709FB002318461837BD4680BDAE
:105AD000440A0020480A0020655A000080B483B0C0
